{
  "contractName": "DBank",
  "abi": [
    {
      "inputs": [
        {
          "internalType": "contract Token",
          "name": "_token",
          "type": "address"
        }
      ],
      "stateMutability": "nonpayable",
      "type": "constructor"
    },
    {
      "inputs": [
        {
          "internalType": "address",
          "name": "",
          "type": "address"
        }
      ],
      "name": "depositStart",
      "outputs": [
        {
          "internalType": "uint256",
          "name": "",
          "type": "uint256"
        }
      ],
      "stateMutability": "view",
      "type": "function"
    },
    {
      "inputs": [
        {
          "internalType": "address",
          "name": "",
          "type": "address"
        }
      ],
      "name": "etherBalanceOf",
      "outputs": [
        {
          "internalType": "uint256",
          "name": "",
          "type": "uint256"
        }
      ],
      "stateMutability": "view",
      "type": "function"
    },
    {
      "inputs": [
        {
          "internalType": "address",
          "name": "",
          "type": "address"
        }
      ],
      "name": "isDeposited",
      "outputs": [
        {
          "internalType": "bool",
          "name": "",
          "type": "bool"
        }
      ],
      "stateMutability": "view",
      "type": "function"
    },
    {
      "inputs": [],
      "name": "deposit",
      "outputs": [],
      "stateMutability": "payable",
      "type": "function"
    },
    {
      "inputs": [],
      "name": "withdraw",
      "outputs": [],
      "stateMutability": "nonpayable",
      "type": "function"
    }
  ],
  "bytecode": "0x608060405234801561001057600080fd5b506040516108703803806108708339818101604052602081101561003357600080fd5b8101908080519060200190929190505050806000806101000a81548173ffffffffffffffffffffffffffffffffffffffff021916908373ffffffffffffffffffffffffffffffffffffffff160217905550506107dc806100946000396000f3fe60806040526004361061004a5760003560e01c8063179fc99f1461004f5780633ccfd60b146100b457806373732024146100cb578063d0e30db014610132578063ff87930a1461013c575b600080fd5b34801561005b57600080fd5b5061009e6004803603602081101561007257600080fd5b81019080803573ffffffffffffffffffffffffffffffffffffffff1690602001909291905050506101a1565b6040518082815260200191505060405180910390f35b3480156100c057600080fd5b506100c96101b9565b005b3480156100d757600080fd5b5061011a600480360360208110156100ee57600080fd5b81019080803573ffffffffffffffffffffffffffffffffffffffff16906020019092919050505061051f565b60405180821515815260200191505060405180910390f35b61013a61053f565b005b34801561014857600080fd5b5061018b6004803603602081101561015f57600080fd5b81019080803573ffffffffffffffffffffffffffffffffffffffff169060200190929190505050610746565b6040518082815260200191505060405180910390f35b60026020528060005260406000206000915090505481565b60011515600160003373ffffffffffffffffffffffffffffffffffffffff1673ffffffffffffffffffffffffffffffffffffffff16815260200190815260200160002060009054906101000a900460ff16151514610262576040517f08c379a00000000000000000000000000000000000000000000000000000000081526004018080602001828103825260268152602001806107816026913960400191505060405180910390fd5b6000600360003373ffffffffffffffffffffffffffffffffffffffff1673ffffffffffffffffffffffffffffffffffffffff16815260200190815260200160002054420390506000662386f26fc10000600260003373ffffffffffffffffffffffffffffffffffffffff1673ffffffffffffffffffffffffffffffffffffffff16815260200190815260200160002054816102f957fe5b046301e33731029050600081830290503373ffffffffffffffffffffffffffffffffffffffff166108fc600260003373ffffffffffffffffffffffffffffffffffffffff1673ffffffffffffffffffffffffffffffffffffffff168152602001908152602001600020549081150290604051600060405180830381858888f1935050505015801561038e573d6000803e3d6000fd5b5060008054906101000a900473ffffffffffffffffffffffffffffffffffffffff1673ffffffffffffffffffffffffffffffffffffffff166340c10f1933836040518363ffffffff1660e01b8152600401808373ffffffffffffffffffffffffffffffffffffffff16815260200182815260200192505050600060405180830381600087803b15801561042057600080fd5b505af1158015610434573d6000803e3d6000fd5b505050506000600260003373ffffffffffffffffffffffffffffffffffffffff1673ffffffffffffffffffffffffffffffffffffffff168152602001908152602001600020819055506000600360003373ffffffffffffffffffffffffffffffffffffffff1673ffffffffffffffffffffffffffffffffffffffff168152602001908152602001600020819055506000600160003373ffffffffffffffffffffffffffffffffffffffff1673ffffffffffffffffffffffffffffffffffffffff16815260200190815260200160002060006101000a81548160ff021916908315150217905550505050565b60016020528060005260406000206000915054906101000a900460ff1681565b60001515600160003373ffffffffffffffffffffffffffffffffffffffff1673ffffffffffffffffffffffffffffffffffffffff16815260200190815260200160002060009054906101000a900460ff16151514610605576040517f08c379a000000000000000000000000000000000000000000000000000000000815260040180806020018281038252601d8152602001807f4572726f722c206465706f73697420616c72656164792061637469766500000081525060200191505060405180910390fd5b662386f26fc10000341015610665576040517f08c379a000000000000000000000000000000000000000000000000000000000815260040180806020018281038252602281526020018061075f6022913960400191505060405180910390fd5b34600260003373ffffffffffffffffffffffffffffffffffffffff1673ffffffffffffffffffffffffffffffffffffffff1681526020019081526020016000208190555060018060003373ffffffffffffffffffffffffffffffffffffffff1673ffffffffffffffffffffffffffffffffffffffff16815260200190815260200160002060006101000a81548160ff02191690831515021790555042600360003373ffffffffffffffffffffffffffffffffffffffff1673ffffffffffffffffffffffffffffffffffffffff16815260200190815260200160002081905550565b6003602052806000526040600020600091509050548156fe4572726f722c206465706f736974206d757374206265203e3d20302e3031204554484572726f722c207573657220686173206e6f2066756e647320696e20746865206442616e6b2ea26469706673582212209660b21288b7eac5e3237c6b057dddcf3a50f4d0522a34f96e987ebcb1f0ae0964736f6c63430007060033",
  "immutableReferences": {},
  "source": "// SPDX-License-Identifier: MIT\r\npragma solidity >=0.6.0 <0.8.0;\r\n\r\nimport \"./Token.sol\";\r\n\r\ncontract DBank {\r\n    Token private token;\r\n\r\n     mapping(address => bool) public isDeposited;\r\n     mapping(address => uint) public etherBalanceOf;\r\n     mapping(address => uint) public depositStart;\r\n\r\n    constructor (Token _token) {\r\n        token = _token;\r\n    }\r\n    \r\n    function deposit() payable public {\r\n        require(isDeposited[msg.sender] == false, 'Error, deposit already active');\r\n        require(msg.value >= 1e16, 'Error, deposit must be >= 0.01 ETH');\r\n\r\n        etherBalanceOf[msg.sender] = msg.value;\r\n        isDeposited[msg.sender] = true;\r\n        depositStart[msg.sender] = block.timestamp;\r\n    }\r\n\r\n    function withdraw() public  {\r\n        require(isDeposited[msg.sender] == true, 'Error, user has no funds in the dBank.');\r\n\r\n        uint depositTime = block.timestamp - depositStart[msg.sender];\r\n        uint interestPerSecond = 31668017 * (etherBalanceOf[msg.sender] / 1e16);\r\n        uint interest = depositTime * interestPerSecond;\r\n\r\n        msg.sender.transfer(etherBalanceOf[msg.sender]);\r\n        token.mint(msg.sender, interest);\r\n\r\n        etherBalanceOf[msg.sender] = 0;\r\n        depositStart[msg.sender] = 0;\r\n        isDeposited[msg.sender] = false;\r\n    }\r\n}",
  "sourcePath": "C:/Users/Martin/Documents/martin/informatica/blockchain/myDbank/truffle/contracts/DBank.sol",
  "compiler": {
    "name": "solc",
    "version": "0.7.6+commit.7338295f.Emscripten.clang"
  },
  "schemaVersion": "3.4.0",
  "updatedAt": "2021-05-02T17:29:49.785Z",
  "devdoc": {
    "kind": "dev",
    "methods": {},
    "version": 1
  },
  "userdoc": {
    "kind": "user",
    "methods": {},
    "version": 1
  }
}